{
  "contractName": "KittethNFT",
  "abi": [
    {
      "anonymous": false,
      "inputs": [
        {
          "indexed": true,
          "internalType": "address",
          "name": "owner",
          "type": "address"
        },
        {
          "indexed": true,
          "internalType": "address",
          "name": "approved",
          "type": "address"
        },
        {
          "indexed": true,
          "internalType": "uint256",
          "name": "tokenId",
          "type": "uint256"
        }
      ],
      "name": "Approval",
      "type": "event"
    },
    {
      "anonymous": false,
      "inputs": [
        {
          "indexed": true,
          "internalType": "address",
          "name": "owner",
          "type": "address"
        },
        {
          "indexed": true,
          "internalType": "address",
          "name": "operator",
          "type": "address"
        },
        {
          "indexed": false,
          "internalType": "bool",
          "name": "approved",
          "type": "bool"
        }
      ],
      "name": "ApprovalForAll",
      "type": "event"
    },
    {
      "anonymous": false,
      "inputs": [
        {
          "indexed": true,
          "internalType": "address",
          "name": "from",
          "type": "address"
        },
        {
          "indexed": true,
          "internalType": "address",
          "name": "to",
          "type": "address"
        },
        {
          "indexed": true,
          "internalType": "uint256",
          "name": "tokenId",
          "type": "uint256"
        }
      ],
      "name": "Transfer",
      "type": "event"
    },
    {
      "inputs": [
        {
          "internalType": "address",
          "name": "to",
          "type": "address"
        },
        {
          "internalType": "uint256",
          "name": "tokenId",
          "type": "uint256"
        }
      ],
      "name": "approve",
      "outputs": [],
      "stateMutability": "nonpayable",
      "type": "function"
    },
    {
      "inputs": [
        {
          "internalType": "address",
          "name": "owner",
          "type": "address"
        }
      ],
      "name": "balanceOf",
      "outputs": [
        {
          "internalType": "uint256",
          "name": "",
          "type": "uint256"
        }
      ],
      "stateMutability": "view",
      "type": "function"
    },
    {
      "inputs": [
        {
          "internalType": "uint256",
          "name": "tokenId",
          "type": "uint256"
        }
      ],
      "name": "getApproved",
      "outputs": [
        {
          "internalType": "address",
          "name": "",
          "type": "address"
        }
      ],
      "stateMutability": "view",
      "type": "function"
    },
    {
      "inputs": [
        {
          "internalType": "address",
          "name": "owner",
          "type": "address"
        },
        {
          "internalType": "address",
          "name": "operator",
          "type": "address"
        }
      ],
      "name": "isApprovedForAll",
      "outputs": [
        {
          "internalType": "bool",
          "name": "",
          "type": "bool"
        }
      ],
      "stateMutability": "view",
      "type": "function"
    },
    {
      "inputs": [],
      "name": "last_completed_migration",
      "outputs": [
        {
          "internalType": "uint256",
          "name": "",
          "type": "uint256"
        }
      ],
      "stateMutability": "view",
      "type": "function"
    },
    {
      "inputs": [],
      "name": "name",
      "outputs": [
        {
          "internalType": "string",
          "name": "",
          "type": "string"
        }
      ],
      "stateMutability": "view",
      "type": "function"
    },
    {
      "inputs": [],
      "name": "owner",
      "outputs": [
        {
          "internalType": "address",
          "name": "",
          "type": "address"
        }
      ],
      "stateMutability": "view",
      "type": "function"
    },
    {
      "inputs": [
        {
          "internalType": "uint256",
          "name": "tokenId",
          "type": "uint256"
        }
      ],
      "name": "ownerOf",
      "outputs": [
        {
          "internalType": "address",
          "name": "",
          "type": "address"
        }
      ],
      "stateMutability": "view",
      "type": "function"
    },
    {
      "inputs": [
        {
          "internalType": "address",
          "name": "from",
          "type": "address"
        },
        {
          "internalType": "address",
          "name": "to",
          "type": "address"
        },
        {
          "internalType": "uint256",
          "name": "tokenId",
          "type": "uint256"
        }
      ],
      "name": "safeTransferFrom",
      "outputs": [],
      "stateMutability": "nonpayable",
      "type": "function"
    },
    {
      "inputs": [
        {
          "internalType": "address",
          "name": "from",
          "type": "address"
        },
        {
          "internalType": "address",
          "name": "to",
          "type": "address"
        },
        {
          "internalType": "uint256",
          "name": "tokenId",
          "type": "uint256"
        },
        {
          "internalType": "bytes",
          "name": "_data",
          "type": "bytes"
        }
      ],
      "name": "safeTransferFrom",
      "outputs": [],
      "stateMutability": "nonpayable",
      "type": "function"
    },
    {
      "inputs": [
        {
          "internalType": "address",
          "name": "operator",
          "type": "address"
        },
        {
          "internalType": "bool",
          "name": "approved",
          "type": "bool"
        }
      ],
      "name": "setApprovalForAll",
      "outputs": [],
      "stateMutability": "nonpayable",
      "type": "function"
    },
    {
      "inputs": [
        {
          "internalType": "bytes4",
          "name": "interfaceId",
          "type": "bytes4"
        }
      ],
      "name": "supportsInterface",
      "outputs": [
        {
          "internalType": "bool",
          "name": "",
          "type": "bool"
        }
      ],
      "stateMutability": "view",
      "type": "function"
    },
    {
      "inputs": [],
      "name": "symbol",
      "outputs": [
        {
          "internalType": "string",
          "name": "",
          "type": "string"
        }
      ],
      "stateMutability": "view",
      "type": "function"
    },
    {
      "inputs": [
        {
          "internalType": "uint256",
          "name": "tokenId",
          "type": "uint256"
        }
      ],
      "name": "tokenURI",
      "outputs": [
        {
          "internalType": "string",
          "name": "",
          "type": "string"
        }
      ],
      "stateMutability": "view",
      "type": "function"
    },
    {
      "inputs": [
        {
          "internalType": "address",
          "name": "from",
          "type": "address"
        },
        {
          "internalType": "address",
          "name": "to",
          "type": "address"
        },
        {
          "internalType": "uint256",
          "name": "tokenId",
          "type": "uint256"
        }
      ],
      "name": "transferFrom",
      "outputs": [],
      "stateMutability": "nonpayable",
      "type": "function"
    },
    {
      "inputs": [
        {
          "internalType": "uint256",
          "name": "completed",
          "type": "uint256"
        }
      ],
      "name": "setCompleted",
      "outputs": [],
      "stateMutability": "nonpayable",
      "type": "function"
    }
  ],
  "bytecode": "0x608060405233600660006101000a81548173ffffffffffffffffffffffffffffffffffffffff021916908373ffffffffffffffffffffffffffffffffffffffff1602179055503480156200005257600080fd5b506040518060400160405280600a81526020017f4b6974746574684e4654000000000000000000000000000000000000000000008152506040518060400160405280600681526020017f4b495454454e00000000000000000000000000000000000000000000000000008152508160009080519060200190620000d7929190620000f9565b508060019080519060200190620000f0929190620000f9565b5050506200020e565b8280546200010790620001d8565b90600052602060002090601f0160209004810192826200012b576000855562000177565b82601f106200014657805160ff191683800117855562000177565b8280016001018555821562000177579182015b828111156200017657825182559160200191906001019062000159565b5b5090506200018691906200018a565b5090565b5b80821115620001a55760008160009055506001016200018b565b5090565b7f4e487b7100000000000000000000000000000000000000000000000000000000600052602260045260246000fd5b60006002820490506001821680620001f157607f821691505b60208210811415620002085762000207620001a9565b5b50919050565b6125af806200021e6000396000f3fe608060405234801561001057600080fd5b50600436106101005760003560e01c806370a0823111610097578063b88d4fde11610066578063b88d4fde146102ad578063c87b56dd146102c9578063e985e9c5146102f9578063fdacd5761461032957610100565b806370a08231146102255780638da5cb5b1461025557806395d89b4114610273578063a22cb4651461029157610100565b806323b872dd116100d357806323b872dd1461019f57806342842e0e146101bb578063445df0ac146101d75780636352211e146101f557610100565b806301ffc9a71461010557806306fdde0314610135578063081812fc14610153578063095ea7b314610183575b600080fd5b61011f600480360381019061011a9190611578565b610345565b60405161012c91906115c0565b60405180910390f35b61013d610427565b60405161014a9190611674565b60405180910390f35b61016d600480360381019061016891906116cc565b6104b9565b60405161017a919061173a565b60405180910390f35b61019d60048036038101906101989190611781565b61053e565b005b6101b960048036038101906101b491906117c1565b610656565b005b6101d560048036038101906101d091906117c1565b6106b6565b005b6101df6106d6565b6040516101ec9190611823565b60405180910390f35b61020f600480360381019061020a91906116cc565b6106dc565b60405161021c919061173a565b60405180910390f35b61023f600480360381019061023a919061183e565b61078e565b60405161024c9190611823565b60405180910390f35b61025d610846565b60405161026a919061173a565b60405180910390f35b61027b61086c565b6040516102889190611674565b60405180910390f35b6102ab60048036038101906102a69190611897565b6108fe565b005b6102c760048036038101906102c29190611a0c565b610914565b005b6102e360048036038101906102de91906116cc565b610976565b6040516102f09190611674565b60405180910390f35b610313600480360381019061030e9190611a8f565b610a1d565b60405161032091906115c0565b60405180910390f35b610343600480360381019061033e91906116cc565b610ab1565b005b60007f80ac58cd000000000000000000000000000000000000000000000000000000007bffffffffffffffffffffffffffffffffffffffffffffffffffffffff1916827bffffffffffffffffffffffffffffffffffffffffffffffffffffffff1916148061041057507f5b5e139f000000000000000000000000000000000000000000000000000000007bffffffffffffffffffffffffffffffffffffffffffffffffffffffff1916827bffffffffffffffffffffffffffffffffffffffffffffffffffffffff1916145b80610420575061041f82610b4b565b5b9050919050565b60606000805461043690611afe565b80601f016020809104026020016040519081016040528092919081815260200182805461046290611afe565b80156104af5780601f10610484576101008083540402835291602001916104af565b820191906000526020600020905b81548152906001019060200180831161049257829003601f168201915b5050505050905090565b60006104c482610bb5565b610503576040517f08c379a00000000000000000000000000000000000000000000000000000000081526004016104fa90611ba2565b60405180910390fd5b6004600083815260200190815260200160002060009054906101000a900473ffffffffffffffffffffffffffffffffffffffff169050919050565b6000610549826106dc565b90508073ffffffffffffffffffffffffffffffffffffffff168373ffffffffffffffffffffffffffffffffffffffff1614156105ba576040517f08c379a00000000000000000000000000000000000000000000000000000000081526004016105b190611c34565b60405180910390fd5b8073ffffffffffffffffffffffffffffffffffffffff166105d9610c21565b73ffffffffffffffffffffffffffffffffffffffff161480610608575061060781610602610c21565b610a1d565b5b610647576040517f08c379a000000000000000000000000000000000000000000000000000000000815260040161063e90611cc6565b60405180910390fd5b6106518383610c29565b505050565b610667610661610c21565b82610ce2565b6106a6576040517f08c379a000000000000000000000000000000000000000000000000000000000815260040161069d90611d58565b60405180910390fd5b6106b1838383610dc0565b505050565b6106d183838360405180602001604052806000815250610914565b505050565b60075481565b6000806002600084815260200190815260200160002060009054906101000a900473ffffffffffffffffffffffffffffffffffffffff169050600073ffffffffffffffffffffffffffffffffffffffff168173ffffffffffffffffffffffffffffffffffffffff161415610785576040517f08c379a000000000000000000000000000000000000000000000000000000000815260040161077c90611dea565b60405180910390fd5b80915050919050565b60008073ffffffffffffffffffffffffffffffffffffffff168273ffffffffffffffffffffffffffffffffffffffff1614156107ff576040517f08c379a00000000000000000000000000000000000000000000000000000000081526004016107f690611e7c565b60405180910390fd5b600360008373ffffffffffffffffffffffffffffffffffffffff1673ffffffffffffffffffffffffffffffffffffffff168152602001908152602001600020549050919050565b600660009054906101000a900473ffffffffffffffffffffffffffffffffffffffff1681565b60606001805461087b90611afe565b80601f01602080910402602001604051908101604052809291908181526020018280546108a790611afe565b80156108f45780601f106108c9576101008083540402835291602001916108f4565b820191906000526020600020905b8154815290600101906020018083116108d757829003601f168201915b5050505050905090565b610910610909610c21565b838361101c565b5050565b61092561091f610c21565b83610ce2565b610964576040517f08c379a000000000000000000000000000000000000000000000000000000000815260040161095b90611d58565b60405180910390fd5b61097084848484611189565b50505050565b606061098182610bb5565b6109c0576040517f08c379a00000000000000000000000000000000000000000000000000000000081526004016109b790611f0e565b60405180910390fd5b60006109ca6111e5565b905060008151116109ea5760405180602001604052806000815250610a15565b806109f4846111fc565b604051602001610a05929190611f6a565b6040516020818303038152906040525b915050919050565b6000600560008473ffffffffffffffffffffffffffffffffffffffff1673ffffffffffffffffffffffffffffffffffffffff16815260200190815260200160002060008373ffffffffffffffffffffffffffffffffffffffff1673ffffffffffffffffffffffffffffffffffffffff16815260200190815260200160002060009054906101000a900460ff16905092915050565b600660009054906101000a900473ffffffffffffffffffffffffffffffffffffffff1673ffffffffffffffffffffffffffffffffffffffff163373ffffffffffffffffffffffffffffffffffffffff1614610b41576040517f08c379a0000000000000000000000000000000000000000000000000000000008152600401610b3890612000565b60405180910390fd5b8060078190555050565b60007f01ffc9a7000000000000000000000000000000000000000000000000000000007bffffffffffffffffffffffffffffffffffffffffffffffffffffffff1916827bffffffffffffffffffffffffffffffffffffffffffffffffffffffff1916149050919050565b60008073ffffffffffffffffffffffffffffffffffffffff166002600084815260200190815260200160002060009054906101000a900473ffffffffffffffffffffffffffffffffffffffff1673ffffffffffffffffffffffffffffffffffffffff1614159050919050565b600033905090565b816004600083815260200190815260200160002060006101000a81548173ffffffffffffffffffffffffffffffffffffffff021916908373ffffffffffffffffffffffffffffffffffffffff160217905550808273ffffffffffffffffffffffffffffffffffffffff16610c9c836106dc565b73ffffffffffffffffffffffffffffffffffffffff167f8c5be1e5ebec7d5bd14f71427d1e84f3dd0314c0f7b2291e5b200ac8c7c3b92560405160405180910390a45050565b6000610ced82610bb5565b610d2c576040517f08c379a0000000000000000000000000000000000000000000000000000000008152600401610d2390612092565b60405180910390fd5b6000610d37836106dc565b90508073ffffffffffffffffffffffffffffffffffffffff168473ffffffffffffffffffffffffffffffffffffffff161480610da657508373ffffffffffffffffffffffffffffffffffffffff16610d8e846104b9565b73ffffffffffffffffffffffffffffffffffffffff16145b80610db75750610db68185610a1d565b5b91505092915050565b8273ffffffffffffffffffffffffffffffffffffffff16610de0826106dc565b73ffffffffffffffffffffffffffffffffffffffff1614610e36576040517f08c379a0000000000000000000000000000000000000000000000000000000008152600401610e2d90612124565b60405180910390fd5b600073ffffffffffffffffffffffffffffffffffffffff168273ffffffffffffffffffffffffffffffffffffffff161415610ea6576040517f08c379a0000000000000000000000000000000000000000000000000000000008152600401610e9d906121b6565b60405180910390fd5b610eb183838361135d565b610ebc600082610c29565b6001600360008573ffffffffffffffffffffffffffffffffffffffff1673ffffffffffffffffffffffffffffffffffffffff1681526020019081526020016000206000828254610f0c9190612205565b925050819055506001600360008473ffffffffffffffffffffffffffffffffffffffff1673ffffffffffffffffffffffffffffffffffffffff1681526020019081526020016000206000828254610f639190612239565b92505081905550816002600083815260200190815260200160002060006101000a81548173ffffffffffffffffffffffffffffffffffffffff021916908373ffffffffffffffffffffffffffffffffffffffff160217905550808273ffffffffffffffffffffffffffffffffffffffff168473ffffffffffffffffffffffffffffffffffffffff167fddf252ad1be2c89b69c2b068fc378daa952ba7f163c4a11628f55a4df523b3ef60405160405180910390a4505050565b8173ffffffffffffffffffffffffffffffffffffffff168373ffffffffffffffffffffffffffffffffffffffff16141561108b576040517f08c379a0000000000000000000000000000000000000000000000000000000008152600401611082906122db565b60405180910390fd5b80600560008573ffffffffffffffffffffffffffffffffffffffff1673ffffffffffffffffffffffffffffffffffffffff16815260200190815260200160002060008473ffffffffffffffffffffffffffffffffffffffff1673ffffffffffffffffffffffffffffffffffffffff16815260200190815260200160002060006101000a81548160ff0219169083151502179055508173ffffffffffffffffffffffffffffffffffffffff168373ffffffffffffffffffffffffffffffffffffffff167f17307eab39ab6107e8899845ad3d59bd9653f200f220920489ca2b5937696c318360405161117c91906115c0565b60405180910390a3505050565b611194848484610dc0565b6111a084848484611362565b6111df576040517f08c379a00000000000000000000000000000000000000000000000000000000081526004016111d69061236d565b60405180910390fd5b50505050565b606060405180602001604052806000815250905090565b60606000821415611244576040518060400160405280600181526020017f30000000000000000000000000000000000000000000000000000000000000008152509050611358565b600082905060005b6000821461127657808061125f9061238d565b915050600a8261126f9190612405565b915061124c565b60008167ffffffffffffffff811115611292576112916118e1565b5b6040519080825280601f01601f1916602001820160405280156112c45781602001600182028036833780820191505090505b5090505b60008514611351576001826112dd9190612205565b9150600a856112ec9190612436565b60306112f89190612239565b60f81b81838151811061130e5761130d612467565b5b60200101907effffffffffffffffffffffffffffffffffffffffffffffffffffffffffffff1916908160001a905350600a8561134a9190612405565b94506112c8565b8093505050505b919050565b505050565b60006113838473ffffffffffffffffffffffffffffffffffffffff166114f9565b156114ec578373ffffffffffffffffffffffffffffffffffffffff1663150b7a026113ac610c21565b8786866040518563ffffffff1660e01b81526004016113ce94939291906124eb565b602060405180830381600087803b1580156113e857600080fd5b505af192505050801561141957506040513d601f19601f82011682018060405250810190611416919061254c565b60015b61149c573d8060008114611449576040519150601f19603f3d011682016040523d82523d6000602084013e61144e565b606091505b50600081511415611494576040517f08c379a000000000000000000000000000000000000000000000000000000000815260040161148b9061236d565b60405180910390fd5b805181602001fd5b63150b7a0260e01b7bffffffffffffffffffffffffffffffffffffffffffffffffffffffff1916817bffffffffffffffffffffffffffffffffffffffffffffffffffffffff1916149150506114f1565b600190505b949350505050565b600080823b905060008111915050919050565b6000604051905090565b600080fd5b600080fd5b60007fffffffff0000000000000000000000000000000000000000000000000000000082169050919050565b61155581611520565b811461156057600080fd5b50565b6000813590506115728161154c565b92915050565b60006020828403121561158e5761158d611516565b5b600061159c84828501611563565b91505092915050565b60008115159050919050565b6115ba816115a5565b82525050565b60006020820190506115d560008301846115b1565b92915050565b600081519050919050565b600082825260208201905092915050565b60005b838110156116155780820151818401526020810190506115fa565b83811115611624576000848401525b50505050565b6000601f19601f8301169050919050565b6000611646826115db565b61165081856115e6565b93506116608185602086016115f7565b6116698161162a565b840191505092915050565b6000602082019050818103600083015261168e818461163b565b905092915050565b6000819050919050565b6116a981611696565b81146116b457600080fd5b50565b6000813590506116c6816116a0565b92915050565b6000602082840312156116e2576116e1611516565b5b60006116f0848285016116b7565b91505092915050565b600073ffffffffffffffffffffffffffffffffffffffff82169050919050565b6000611724826116f9565b9050919050565b61173481611719565b82525050565b600060208201905061174f600083018461172b565b92915050565b61175e81611719565b811461176957600080fd5b50565b60008135905061177b81611755565b92915050565b6000806040838503121561179857611797611516565b5b60006117a68582860161176c565b92505060206117b7858286016116b7565b9150509250929050565b6000806000606084860312156117da576117d9611516565b5b60006117e88682870161176c565b93505060206117f98682870161176c565b925050604061180a868287016116b7565b9150509250925092565b61181d81611696565b82525050565b60006020820190506118386000830184611814565b92915050565b60006020828403121561185457611853611516565b5b60006118628482850161176c565b91505092915050565b611874816115a5565b811461187f57600080fd5b50565b6000813590506118918161186b565b92915050565b600080604083850312156118ae576118ad611516565b5b60006118bc8582860161176c565b92505060206118cd85828601611882565b9150509250929050565b600080fd5b600080fd5b7f4e487b7100000000000000000000000000000000000000000000000000000000600052604160045260246000fd5b6119198261162a565b810181811067ffffffffffffffff82111715611938576119376118e1565b5b80604052505050565b600061194b61150c565b90506119578282611910565b919050565b600067ffffffffffffffff821115611977576119766118e1565b5b6119808261162a565b9050602081019050919050565b82818337600083830152505050565b60006119af6119aa8461195c565b611941565b9050828152602081018484840111156119cb576119ca6118dc565b5b6119d684828561198d565b509392505050565b600082601f8301126119f3576119f26118d7565b5b8135611a0384826020860161199c565b91505092915050565b60008060008060808587031215611a2657611a25611516565b5b6000611a348782880161176c565b9450506020611a458782880161176c565b9350506040611a56878288016116b7565b925050606085013567ffffffffffffffff811115611a7757611a7661151b565b5b611a83878288016119de565b91505092959194509250565b60008060408385031215611aa657611aa5611516565b5b6000611ab48582860161176c565b9250506020611ac58582860161176c565b9150509250929050565b7f4e487b7100000000000000000000000000000000000000000000000000000000600052602260045260246000fd5b60006002820490506001821680611b1657607f821691505b60208210811415611b2a57611b29611acf565b5b50919050565b7f4552433732313a20617070726f76656420717565727920666f72206e6f6e657860008201527f697374656e7420746f6b656e0000000000000000000000000000000000000000602082015250565b6000611b8c602c836115e6565b9150611b9782611b30565b604082019050919050565b60006020820190508181036000830152611bbb81611b7f565b9050919050565b7f4552433732313a20617070726f76616c20746f2063757272656e74206f776e6560008201527f7200000000000000000000000000000000000000000000000000000000000000602082015250565b6000611c1e6021836115e6565b9150611c2982611bc2565b604082019050919050565b60006020820190508181036000830152611c4d81611c11565b9050919050565b7f4552433732313a20617070726f76652063616c6c6572206973206e6f74206f7760008201527f6e6572206e6f7220617070726f76656420666f7220616c6c0000000000000000602082015250565b6000611cb06038836115e6565b9150611cbb82611c54565b604082019050919050565b60006020820190508181036000830152611cdf81611ca3565b9050919050565b7f4552433732313a207472616e736665722063616c6c6572206973206e6f74206f60008201527f776e6572206e6f7220617070726f766564000000000000000000000000000000602082015250565b6000611d426031836115e6565b9150611d4d82611ce6565b604082019050919050565b60006020820190508181036000830152611d7181611d35565b9050919050565b7f4552433732313a206f776e657220717565727920666f72206e6f6e657869737460008201527f656e7420746f6b656e0000000000000000000000000000000000000000000000602082015250565b6000611dd46029836115e6565b9150611ddf82611d78565b604082019050919050565b60006020820190508181036000830152611e0381611dc7565b9050919050565b7f4552433732313a2062616c616e636520717565727920666f7220746865207a6560008201527f726f206164647265737300000000000000000000000000000000000000000000602082015250565b6000611e66602a836115e6565b9150611e7182611e0a565b604082019050919050565b60006020820190508181036000830152611e9581611e59565b9050919050565b7f4552433732314d657461646174613a2055524920717565727920666f72206e6f60008201527f6e6578697374656e7420746f6b656e0000000000000000000000000000000000602082015250565b6000611ef8602f836115e6565b9150611f0382611e9c565b604082019050919050565b60006020820190508181036000830152611f2781611eeb565b9050919050565b600081905092915050565b6000611f44826115db565b611f4e8185611f2e565b9350611f5e8185602086016115f7565b80840191505092915050565b6000611f768285611f39565b9150611f828284611f39565b91508190509392505050565b7f546869732066756e6374696f6e206973207265737472696374656420746f207460008201527f686520636f6e74726163742773206f776e657200000000000000000000000000602082015250565b6000611fea6033836115e6565b9150611ff582611f8e565b604082019050919050565b6000602082019050818103600083015261201981611fdd565b9050919050565b7f4552433732313a206f70657261746f7220717565727920666f72206e6f6e657860008201527f697374656e7420746f6b656e0000000000000000000000000000000000000000602082015250565b600061207c602c836115e6565b915061208782612020565b604082019050919050565b600060208201905081810360008301526120ab8161206f565b9050919050565b7f4552433732313a207472616e73666572206f6620746f6b656e2074686174206960008201527f73206e6f74206f776e0000000000000000000000000000000000000000000000602082015250565b600061210e6029836115e6565b9150612119826120b2565b604082019050919050565b6000602082019050818103600083015261213d81612101565b9050919050565b7f4552433732313a207472616e7366657220746f20746865207a65726f2061646460008201527f7265737300000000000000000000000000000000000000000000000000000000602082015250565b60006121a06024836115e6565b91506121ab82612144565b604082019050919050565b600060208201905081810360008301526121cf81612193565b9050919050565b7f4e487b7100000000000000000000000000000000000000000000000000000000600052601160045260246000fd5b600061221082611696565b915061221b83611696565b92508282101561222e5761222d6121d6565b5b828203905092915050565b600061224482611696565b915061224f83611696565b9250827fffffffffffffffffffffffffffffffffffffffffffffffffffffffffffffffff03821115612284576122836121d6565b5b828201905092915050565b7f4552433732313a20617070726f766520746f2063616c6c657200000000000000600082015250565b60006122c56019836115e6565b91506122d08261228f565b602082019050919050565b600060208201905081810360008301526122f4816122b8565b9050919050565b7f4552433732313a207472616e7366657220746f206e6f6e20455243373231526560008201527f63656976657220696d706c656d656e7465720000000000000000000000000000602082015250565b60006123576032836115e6565b9150612362826122fb565b604082019050919050565b600060208201905081810360008301526123868161234a565b9050919050565b600061239882611696565b91507fffffffffffffffffffffffffffffffffffffffffffffffffffffffffffffffff8214156123cb576123ca6121d6565b5b600182019050919050565b7f4e487b7100000000000000000000000000000000000000000000000000000000600052601260045260246000fd5b600061241082611696565b915061241b83611696565b92508261242b5761242a6123d6565b5b828204905092915050565b600061244182611696565b915061244c83611696565b92508261245c5761245b6123d6565b5b828206905092915050565b7f4e487b7100000000000000000000000000000000000000000000000000000000600052603260045260246000fd5b600081519050919050565b600082825260208201905092915050565b60006124bd82612496565b6124c781856124a1565b93506124d78185602086016115f7565b6124e08161162a565b840191505092915050565b6000608082019050612500600083018761172b565b61250d602083018661172b565b61251a6040830185611814565b818103606083015261252c81846124b2565b905095945050505050565b6000815190506125468161154c565b92915050565b60006020828403121561256257612561611516565b5b600061257084828501612537565b9150509291505056fea2646970667358221220f8ac784d3716ac8931b6f96593d7ec4ddb00a2b025715463f53b794699c0b3d664736f6c63430008090033",
  "immutableReferences": {},
  "source": "// SPDX-License-Identifier: MIT\npragma solidity ^0.8.0;\n\nimport \"./ERC721/ERC721.sol\";\n\ncontract KittethNFT is ERC721(\"KittethNFT\", \"KITTEN\") {\n  address public owner = msg.sender;\n  uint public last_completed_migration;\n\n  modifier restricted() {\n    require(\n      msg.sender == owner,\n      \"This function is restricted to the contract's owner\"\n    );\n    _;\n  }\n\n  function setCompleted(uint completed) public restricted {\n    last_completed_migration = completed;\n  }\n}\n",
  "sourcePath": "/home/developer/Code/Github/Solidity/kittethnetwork-nft/contracts/kittethnft.sol",
  "compiler": {
    "name": "solc",
    "version": "0.8.9+commit.e5eed63a.Emscripten.clang"
  },
  "schemaVersion": "3.4.3",
  "updatedAt": "2021-11-07T17:22:49.923Z",
  "devdoc": {
    "kind": "dev",
    "methods": {
      "approve(address,uint256)": {
        "details": "See {IERC721-approve}."
      },
      "balanceOf(address)": {
        "details": "See {IERC721-balanceOf}."
      },
      "getApproved(uint256)": {
        "details": "See {IERC721-getApproved}."
      },
      "isApprovedForAll(address,address)": {
        "details": "See {IERC721-isApprovedForAll}."
      },
      "name()": {
        "details": "See {IERC721Metadata-name}."
      },
      "ownerOf(uint256)": {
        "details": "See {IERC721-ownerOf}."
      },
      "safeTransferFrom(address,address,uint256)": {
        "details": "See {IERC721-safeTransferFrom}."
      },
      "safeTransferFrom(address,address,uint256,bytes)": {
        "details": "See {IERC721-safeTransferFrom}."
      },
      "setApprovalForAll(address,bool)": {
        "details": "See {IERC721-setApprovalForAll}."
      },
      "supportsInterface(bytes4)": {
        "details": "See {IERC165-supportsInterface}."
      },
      "symbol()": {
        "details": "See {IERC721Metadata-symbol}."
      },
      "tokenURI(uint256)": {
        "details": "See {IERC721Metadata-tokenURI}."
      },
      "transferFrom(address,address,uint256)": {
        "details": "See {IERC721-transferFrom}."
      }
    },
    "version": 1
  },
  "userdoc": {
    "kind": "user",
    "methods": {},
    "version": 1
  }
}